{
  "contractName": "timeBoundToken",
  "abi": [
    {
      "inputs": [
        {
          "internalType": "contract ERC20",
          "name": "token",
          "type": "address"
        },
        {
          "internalType": "address",
          "name": "buyer",
          "type": "address"
        },
        {
          "internalType": "uint256",
          "name": "secsBeforeTransfer",
          "type": "uint256"
        }
      ],
      "stateMutability": "nonpayable",
      "type": "constructor"
    },
    {
      "inputs": [],
      "name": "release",
      "outputs": [],
      "stateMutability": "nonpayable",
      "type": "function"
    }
  ],
  "bytecode": "0x608060405234801561001057600080fd5b506040516107ef3803806107ef83398181016040528101906100329190610143565b428111610074576040517f08c379a000000000000000000000000000000000000000000000000000000000815260040161006b906101b9565b60405180910390fd5b826000806101000a81548173ffffffffffffffffffffffffffffffffffffffff021916908373ffffffffffffffffffffffffffffffffffffffff16021790555081600160006101000a81548173ffffffffffffffffffffffffffffffffffffffff021916908373ffffffffffffffffffffffffffffffffffffffff160217905550806002819055505050506102d1565b6000815190506101138161028c565b92915050565b600081519050610128816102a3565b92915050565b60008151905061013d816102ba565b92915050565b60008060006060848603121561015c5761015b610238565b5b600061016a86828701610119565b935050602061017b86828701610104565b925050604061018c8682870161012e565b9150509250925092565b60006101a36027836101d9565b91506101ae8261023d565b604082019050919050565b600060208201905081810360008301526101d281610196565b9050919050565b600082825260208201905092915050565b60006101f58261020e565b9050919050565b6000610207826101ea565b9050919050565b600073ffffffffffffffffffffffffffffffffffffffff82169050919050565b6000819050919050565b600080fd5b7f74696d65426f756e64546f6b656e3a2063616e206e6f742062652072656c656160008201527f7365642079657400000000000000000000000000000000000000000000000000602082015250565b610295816101ea565b81146102a057600080fd5b50565b6102ac816101fc565b81146102b757600080fd5b50565b6102c38161022e565b81146102ce57600080fd5b50565b61050f806102e06000396000f3fe608060405234801561001057600080fd5b506004361061002b5760003560e01c806386d1a69f14610030575b600080fd5b61003861003a565b005b60025442101561007f576040517f08c379a00000000000000000000000000000000000000000000000000000000081526004016100769061036f565b60405180910390fd5b60008060009054906101000a900473ffffffffffffffffffffffffffffffffffffffff1673ffffffffffffffffffffffffffffffffffffffff166370a08231306040518263ffffffff1660e01b81526004016100db919061032b565b60206040518083038186803b1580156100f357600080fd5b505afa158015610107573d6000803e3d6000fd5b505050506040513d601f19601f8201168201806040525081019061012b919061029a565b905060008111610170576040517f08c379a00000000000000000000000000000000000000000000000000000000081526004016101679061038f565b60405180910390fd5b60008054906101000a900473ffffffffffffffffffffffffffffffffffffffff1673ffffffffffffffffffffffffffffffffffffffff1663a9059cbb600160009054906101000a900473ffffffffffffffffffffffffffffffffffffffff16836040518363ffffffff1660e01b81526004016101ed929190610346565b602060405180830381600087803b15801561020757600080fd5b505af115801561021b573d6000803e3d6000fd5b505050506040513d601f19601f8201168201806040525081019061023f919061026d565b5050565b600081519050610252816104ab565b92915050565b600081519050610267816104c2565b92915050565b60006020828403121561028357610282610408565b5b600061029184828501610243565b91505092915050565b6000602082840312156102b0576102af610408565b5b60006102be84828501610258565b91505092915050565b6102d0816103c0565b82525050565b60006102e36032836103af565b91506102ee8261040d565b604082019050919050565b60006103066023836103af565b91506103118261045c565b604082019050919050565b610325816103fe565b82525050565b600060208201905061034060008301846102c7565b92915050565b600060408201905061035b60008301856102c7565b610368602083018461031c565b9392505050565b60006020820190508181036000830152610388816102d6565b9050919050565b600060208201905081810360008301526103a8816102f9565b9050919050565b600082825260208201905092915050565b60006103cb826103de565b9050919050565b60008115159050919050565b600073ffffffffffffffffffffffffffffffffffffffff82169050919050565b6000819050919050565b600080fd5b7f546f6b656e54696d656c6f636b3a2063757272656e742074696d65206973206260008201527f65666f72652072656c656173652074696d650000000000000000000000000000602082015250565b7f546f6b656e54696d656c6f636b3a206e6f20746f6b656e7320746f2072656c6560008201527f6173650000000000000000000000000000000000000000000000000000000000602082015250565b6104b4816103d2565b81146104bf57600080fd5b50565b6104cb816103fe565b81146104d657600080fd5b5056fea26469706673582212202cdf1379f12a5a34c42294de408f467a98672ea921ab0864219d8ad71de4620564736f6c63430008070033",
  "immutableReferences": {},
  "source": "// SPDX-License-Identifier: MIT\r\npragma solidity ^0.8.0;\r\nimport \"@openzeppelin/contracts/token/ERC20/ERC20.sol\";\r\ncontract timeBoundToken{\r\n    ERC20 private _token;\r\n    address private _buyer;\r\n    uint256 private _secsBeforeTransfer;\r\n    constructor (ERC20 token, address buyer, uint256 secsBeforeTransfer) public {\r\n        require(secsBeforeTransfer > block.timestamp, \"timeBoundToken: can not be released yet\");\r\n        _token = token;\r\n        _buyer = buyer;\r\n        _secsBeforeTransfer = secsBeforeTransfer;\r\n    }\r\n    function release() public virtual {\r\n        require(block.timestamp >= _secsBeforeTransfer, \"TokenTimelock: current time is before release time\");\r\n        uint256 amount = _token.balanceOf(address(this));\r\n        require(amount > 0, \"TokenTimelock: no tokens to release\");\r\n        _token.transfer(_buyer, amount);\r\n    }\r\n}",
  "sourcePath": "C:\\Users\\GHAURI\\~Files to Upload\\Saad\\PIAIC\\q3_bcc\\assignment3b\\contracts\\timeBoundToken.sol",
  "compiler": {
    "name": "solc",
    "version": "0.8.7+commit.e28d00a7.Emscripten.clang"
  },
  "schemaVersion": "3.4.3",
  "updatedAt": "2021-08-23T18:44:09.047Z",
  "devdoc": {
    "kind": "dev",
    "methods": {},
    "version": 1
  },
  "userdoc": {
    "kind": "user",
    "methods": {},
    "version": 1
  }
}